:020000040000fa
:080000000002040000000000f2
:020000040000fa
:100400004fb120000e7f24000e0188000000000084
:100410000c000700c062220001002000110007004c
:10042000000020000000e000020032000000020096
:100430000000000048290200000000000040da002f
:100440000000fe004440a900000920000000e00078
:100450000300320000002000a00188004440a800f2
:100460000000060091018800800078000000eb0089
:1004700015003700e280400032a0b4009101ba00bc
:10048000e280400032a0b4009102ba00e280400055
:1004900032a0b4000002eb00472bde00f507b200eb
:1004a000602ce10004003a000059eb008301e900f0
:1004b000fdff3e00040037006128e100010032002a
:1004c0000082eb00040007001101ba000200e00006
:1004d000e8ff3a00000006003159ba008301e90044
:1004e0000c0032002159ba008301e90008003200f3
:1004f0000400e00003003a00e280400032a0b400b3
:10050000f5ff370011d9ba008301e900faff3a007c
:100510008100e800e180400032a0b4000000060045
:100520000040da000000fe000a00fa0080017800b6
:10053000e20f500028003e0090588000e10f50006c
:1005400008003200802320000000e0000500320097
:10055000042320002523200046232000800178006a
:10056000040037000422200025222000462220001b
:1005700083222000144090000004e00004003500b5
:100580008009eb00144090000074a0001042980015
:10059000154090000028a30003003a001540900089
:1005a0000024a000904298008001eb000700370073
:1005b000154090000008a300fdff320063c07800e2
:1005c0000000fb00000b78008301e800828f5100df
:1005d000f7ff3a000800370030002000b0bf9f004e
:1005e000c3bf9f00d1bf9f00e2bf9f006a8057003a
:1005f00000c0da006fb99700020078000080fa00ae
:1006000000000600140020001c013700f4ff2f003a
:100610001a013700889fbe008a9fbe008c1f780099
:10062000310107003801330003866c006450e1009b
:10063000240032006420e100270032006150e10014
:10064000220032006120e100210032008b8542004f
:10065000eb07b1000134b800003ab80008044200ca
:1006600089844a00013ab8000030b8008880400010
:1006700009014a0004003300000040008180480066
:10068000020149008b05e900c909dd008301700002
:100690000100320013002000c814de004814dd0001
:1006a0004709de001200b200c808de0008847000ae
:1006b0002501070001f0a1000cf0a70001f0a00047
:1006c0001a0137006120e1001c0132000801be0060
:1006d0000200be00f7ff37006150e100fcff3a0066
:1006e0001601370003f0a200889fbe008a9fbe005b
:1006f0008c1f7800fc000700030133006450e10008
:100700004f0032006420e1005200320003826c008e
:1007100007003b000905d0000306d000820f5400fb
:100720000c065d00020039000200320089017800e9
:10073000030678008582550004003d000003fd009b
:100740008103fd008502ea008b854200840f720060
:1007500002003b0060001000e08018006011b8004b
:100760000005eb007a28e1000a0039000600780055
:10077000c75ddd00f707b200878075002d003700e8
:10078000828171000a017800610560008180d100da
:100790000080d3008502e900f9ff3b000604400019
:1007a0008784480002003b0060041400e0841c00c1
:1007b0000988a300070032008a81710082817100dc
:1007c000610164008904d1000884d3008b05e8002e
:1007d000170037000978a30013003a000b00e0006f
:1007e000130034008b05e9000804440089844c00a0
:1007f0000a4474000978a3000d003a000b00e000e1
:10080000070034008b05e9000804440089844c008b
:1008100001003a000b0020000978a300f7ff320026
:100820000001eb0002003700828171000a017800ac
:10083000c50007000cf0a70001f0a000bb003700c6
:100840006420e10002003a00838f6c00bb0033009b
:100850000801be000200be00b40037000001be0067
:10086000df0007000470a70003f0a10003f8a30055
:1008700013003a006509b10010003200090035008c
:100880006928e10002003500010028000000050091
:1008900000004000818048008502e900fcff3a002a
:1008a00000000600f88f4200050035008100d100ed
:1008b0000080d3008502e800fcff3a00000006003b
:1008c0008000eb0000000500889fbe008a9fbe00ec
:1008d000010578000100e0000400350008003c003c
:1008e0000000e0002000320005003700600010002a
:1008f000e080180002003b0001f02c001a003700d5
:100900000004be006011b8006b0920000982cf000e
:10091000020039000882cf000441b0006942520051
:100920000e00320008003b0082817100610164000a
:100930008904d1000884d3008b05e8000442e80054
:10094000f9ff3a00050037000804440089844c0090
:100950008b05e9000442e900fbff3a007a0007003a
:100960000af0a70001f0a0004f05be004f04be0032
:1009700000000600889fbe008a9fbe008c1f780082
:10098000590007006000330003866c006450e100ea
:100990002e0032006420e100330032006150e1009b
:1009a0002f0032006120e1003100320085855500c2
:1009b000eb07b00009002000080420000500370004
:1009c0000804440089844c000a00310006034300f7
:1009d00087834b000001530081815b00f8ff3300e7
:1009e0000203be000800a0000804440089844c00f3
:1009f000f6ff3900c639dd008301730001003200c3
:100a0000130020008904d1000884d3000998a300b2
:100a1000050032000800a7000300a0008904d100ef
:100a20000884d3008b05e8008904d1000884d30032
:100a30000001eb000281d2004300070001f0a10099
:100a40000cf0a70001f0a000380037006420e1009e
:100a50003a0032000801be000200be00f7ff370076
:100a60006120e100350032006000b800f3ff37007c
:100a70000000200001f82700f0ff3700889fbe002b
:100a80008a9fbe00841f7800170007004f0078007f
:100a900011003300f0ff2f00838f6c0006003b0035
:100aa000040565000a00a7000800370009f0a60049
:100ab0001000200008003700820f5400838f5c0074
:100ac000030039001000200001003e00000020005b
:100ad00009f0a7000000ea004f05be004f04be0069
:100ae0000000e000000006000004be003c0007001b
:100af0000003be000405be000200be00380007006f
:100b0000844f7500000006000200be006450e10042
:100b1000050036006420e100020036000968a300e9
:100b200001003a000800be000160a0004f067800f6
:100b30004f05be004f04be0000000600f0ff2f006e
:100b4000f1ff2700f9ff3700810020006180550088
:100b50000b003d000b00200061fe2f000100e100b2
:100b60001d00340082817100610164008904d1009c
:100b70000884d3000000e800faff3a00710020006a
:100b80006100640003007000020060000900320090
:100b900061044400e0844c000988a500050032008f
:100ba0008b05e8006808e10002003a008904d100e2
:100bb0000884d300f20f20000258e10005003d0038
:100bc000c75ddd00f907b200898075000800780074
:100bd000000006000bf827008b00780000000500dd
:100be000c70ade00f107b200f50fb20008003200bc
:100bf000e1cf4200020032000170a0002400050095
:100c0000810f700001003200040805004400050057
:100c1000810f700002003a00140005008502e9000f
:100c20000000400081c04800fcff3b000170a000b4
:100c3000240005002800fa00889fbe008a9fbe009d
:100c40008c9fbe0003866b00170307000028a300db
:100c500064003a000128a30067003a000008a300de
:100c600062003a000108a30065003a001e009000ef
:100c7000be08900081064000ed3fb100f4805700af
:100c8000ee019000111ab8008e099000311bb800d7
:100c90009e099000311cb800511db800f485570022
:100ca00046000700fe0190003a0007008b85e8002f
:100cb0003e0007008e09900040000700ee01900002
:100cc000340007008b85e800380007008e0990008b
:100cd000400007009e0990001b18b80089044000de
:100ce0000a854800fe019000340007008b85e8006b
:100cf00038000700ee019000300007008e099000d8
:100d00001b18b800890440000a8548000a98a3000f
:100d100008003a000402420085824a0006034b00a4
:100d200087834b0008044c0089844c000a054d0061
:100d30008d06e90084827200850273004c3add0062
:100d4000850272000100320015002000443ade00e6
:100d50001400b2004538de00cb45dd000b0070000a
:100d6000c540de00cb4ddd008b8070004549de00c4
:100d7000cb55dd000b017100c551de000d0378007d
:100d8000e202070003f0a1000cf0a70003f0a000ae
:100d9000d90237001b18b8008502400006834800be
:100da000e0834b0060044c00070037001b18b800bc
:100db0000603400087834800faff37001b18b8007d
:100dc0008703400008844800e0844c0060054d0023
:100dd000000006001b18b800080440008984480081
:100de000faff37000108a300c0023a005800be0015
:100df0005801be00e3ff37000008a300bb023a0021
:100e000009047800f9ff37008103780074ff0700b8
:100e10000001be006000b8000478a30013003a008f
:100e20006220e10015003e000d0039008301d10071
:100e30000281d3008180d3008301d1000281d300dd
:100e40008180d3008301d1000281d3008180d3004f
:100e50000538b000c42add00f300b20083817200bf
:100e600007f0a70003f0a00000000600f3ff270032
:100e7000f2ff2f006110b900fbff370003ff2700ce
:100e8000f7ff37008f1fd100cc0207008f87e900e2
:100e90000000e00000000600801feb00c702070012
:100ea0008f87e9000000e000000006001400fa004f
:100eb000889fbe008a9fbe008c9fbe000005be00ba
:100ec0000206be00680047000c90be000a90be00fb
:100ed000e30207006400e1001a00320016003e0041
:100ee0006100e1001a0032006e049000fe049000e0
:100ef0000e0b90009e0b90006011b8009e059000b4
:100f00000b38b100d50120008281710061016400bd
:100f10008703d1000683d3008984d3000884d300db
:100f20008502e900f8ff3a0007ff07000df0a7006f
:100f300001f0a00070023700f1ff2700f0ff2f0042
:100f40006d02370001f8270000002000f7ff37008e
:100f50006000b800f5ff3700e802070005097800d7
:100f600000000600809feb00940207008f87e900d5
:100f70000000e000000006002800fa00889fbe0084
:100f80008a9fbe008c9fbe00070678008786690096
:100f90000c003b00030478008704780008f0a100ef
:100fa00009f0a100840f5000858f5800860f59006a
:100fb000890f5c00030033000cf0a20001003a002e
:100fc0000cf0a100380207006400e1005f0032006d
:100fd000780147006408e100610032006c014700bd
:100fe000748557003200be001201be003a04be00f4
:100ff0001a05be001e039000be0a90008503530030
:1010000006003d000004fd008104fd000205fd0016
:101010008305fd008703ea00050378000df8a300af
:101020000400320060041400e0841c0060051d0010
:10103000e0851d006022b8007d0320000d38e1002e
:101040008006eb000b0039004433dd00f300b200f2
:101050008301730039003700848272000d0278002a
:10106000e10664008b85d1000a85d3008984d30012
:101070000884d3008703e900f7ff3b000800400025
:10108000898048000a0149008b81490004003b0027
:1010900060001000e080180060011900e081190074
:1010a0000358a300090032008d827200848272000e
:1010b000610260008301d1000281d3008180d300ee
:1010c0000080d3000603e8001b0037000348a3009c
:1010d00017003a000600e000170034000603e9009c
:1010e0000d00a30000004800818048000201490073
:1010f000838149000348a3000f003a000600e00086
:10110000090034000603e900000040008180480027
:10111000020149008381490001003a000003eb000d
:101120000348a300f5ff32006022b8000200370038
:101130008482720061826600f401070003f0a1005e
:101140000cf0a70003f0a000eb013700640147009a
:101150006408e10002003a000df8a300e3013a0040
:101160003200be001201be00e30137001400fa0095
:10117000889fbe008a9fbe008c9fbe000004be00f8
:101180000205be00680047000a90be000890be003d
:10119000330207000070a7000bf0a1000bf8a300ba
:1011a00020003a009e0990000e099000fe00900079
:1011b0006e0090009e029000344320008482520012
:1011c000cd0132000a003c00b4fc2f000428e100ed
:1011d000140034008301d1000281d3008180d30048
:1011e0000080d3008502e800faff3a00c201370010
:1011f000b40020000428e10007003c00000040008b
:101200008180480002014900838149008502e9008c
:10121000faff3a00b801370003002800020020005e
:10122000010037006011b8006000b800b20137005b
:101230002800fa00889fbe008a9fbe008c9fbe00d7
:1012400003866b00980107006400e100440032004f
:101250006408e1004a0032006100e100460032000b
:101260006108e10049003200ec0647006000b80068
:101270003d02be003d03be00f48657006011b80079
:101280003d04be003d05be007d0320000b0037007d
:101290000000a0008d06e9001300320004024200a5
:1012a00085824a0006034b0087834b000000400004
:1012b00081804800020149008381490008025200f0
:1012c00089825a000a035b008b835b00f0ff3b00be
:1012d0000802420089824a000a034b008b834b00bc
:1012e0008d06e900edff3a0084827200868272006a
:1012f000f707b2008782720001003200150020005b
:101300001e0490003e0b900006035400e63fb00020
:101310000368a300070032000000a7000500a0003a
:101320008301d1000281d3008180d3000080d300eb
:101330000603e8008301d1000281d3008180d3003d
:101340000080d3000002eb000482d2006f0107008e
:1013500003f0a1000cf0a70003f0a0006601370025
:10136000640247006408e100600132003400be00fe
:101370003401be00f6ff37006108e1005b01320076
:101380006011b8006000b800f1ff370003ff2700cc
:1013900002002000fbff3700889fbe008304780016
:1013a0000300e0002c00350003003c0000827000c8
:1013b000040271002600320036432000c5002000e0
:1013c0008383cf000a0039000541b1008283cf003a
:1013d000070039000541b1008183cf0004003900c6
:1013e0000541b1008083cf00010039000541b10003
:1013f00085c353006022b800120032000a003b008f
:1014000084827200610260008301d1000281d300f6
:101410008180d3000080d3000603e8008743e80002
:10142000f7ff3a00070037000000400081804800c5
:1014300002014900838149000603e9008743e9006e
:10144000f9ff3a003101070009f0a70003f0a000fe
:101450004f04be000000060060001000e08018008d
:1014600060011900e0811900d3ff3b00033e2c000e
:10147000f7ff370007f0a200bffe3700881f780093
:10148000000478005001be004000be00040040008f
:10149000858048000601490087814900009cbe0004
:1014a0000294be000400e1000588e1000690e1001e
:1014b0000798e10002003100680044001008e800cd
:1014c0004f04780000000600f4874700889fbe00a4
:1014d0008a9fbe008c9fbe008e1f78000205be0052
:1014e0000004be00d4b79f00e5b79f00f6b79f0089
:1014f00087bf9f000000eb00c0b79f00b0b79f0000
:10150000a0b79f0090b79f0080b79f000d042000f8
:10151000bfb097004fb09700000140000000e0000e
:101520000f003d004f08de0000007100c0b79f00b3
:101530009e00070001003d0012002000a1000700ee
:1015400001003d0012002000a6000700b1000700c6
:10155000b60007000f004000c8ff07002200370058
:101560004f08de0000067100ccb79f008f00070017
:1015700001003d00120020009200070001003d0024
:101580001200200097000700a20007000fb297008a
:101590009fb297002fb39700bfb39700a900070031
:1015a0000000520081805a0002015b0083815b00d1
:1015b00080b79f0091b79f00a2b79f00b3b79f006d
:1015c0000007eb009f0007000020e10001a8e100f8
:1015d00002b0e10003b8e100010031001e0020006c
:1015e0000e005600c0b79f004fb297000400e00005
:1015f0000700350010002000010020006011b80035
:1016000008047000898470000a0571008b857100e0
:101610008d06e900beff3a000400e00003003d0033
:10162000820007000f00400094ff07004fa89700ba
:101630000000e00004003a000fb497009fb4970048
:101640002fb59700bfb59700940007004f077800ab
:101650004f06be004f05be004f04be004f01b10053
:1016600000000600881f780018002000881f7800fe
:1016700095ff07008f87e9004f04780000000600ff
:10168000801feb0090ff07008f87e9000000060035
:10169000889fbe008a9fbe008c1f78006e000700e6
:1016a00007003d0073000700e00f5b00e08f5b0068
:1016b00007003d00320007000006eb000400370081
:1016c0003400070002003d002a0007001c00200033
:1016d00072000700e3ff07000203be000002be0025
:1016e0000c00e00001003200220007000400be00f0
:1016f0000601be004f0678004f05be004f04be0035
:1017000000000600889fbe008a9fbe008c1f7800e4
:101710005100070005003d0056000700e00f5b0088
:10172000e08f5b0006003d00040037001900070051
:1017300003003d006000b8006011b8001000070011
:1017400056000700ceff07000203be000002be00e5
:101750000c00e00001003200060007000400be009b
:101760000601be004f0678004f05be004f04be00c4
:10177000000006006000b8006011b80000003700eb
:1017800004025000858258000603590087835900df
:10179000000006000006eb00e00f5200e08f5a0048
:1017a000e00f5b00e08f5b0000000600018040005e
:1017b00090b79f000001eb008fb097000100e000a0
:1017c000000006000200700090b79f0001804000fa
:1017d00080b79f000001eb00ffa897000100e00028
:1017e000000006000200700080b79f0001804000ea
:1017f0006faa9700cf20de0001007000f0af9f00bd
:1018000004024200250007004f18de0000027200ab
:1018100000000600e4af9f000804440089844c00e7
:101820000a054d008b854d00000006003fb2970071
:10183000cfb297005fb39700efb3970000fe2f0081
:10184000000006003fb09700cfb097005fb197004f
:10185000efb19700000006000205be000004be00c4
:10186000e00f5000e08f5800e00f5900e08f590062
:10187000000006006000b8006011b80008045000c5
:10188000898458000a0559008b8559001c002000e6
:10189000e00f5200e08f5a00000006000800be0072
:1018a0000a01be0000000600680447000294be0062
:1018b0000094be00fc0447008694be008494be00e1
:1018c000090078006600070008007800640007003f
:1018d00099007800814f70000b003b000800be00ab
:1018e000930007004f00b10003003700f3ff27000b
:1018f000f2ff2f006110b9004f06be004f05be0079
:101900004f04be000080fa0000000600180020000e
:1019100057002000080453000d003d000600200081
:1019200097fc2f000740e1001e0034008482720003
:10193000610260008301d1000281d3008180d30065
:101940000080d3000804e800f8ff3a0047002000b8
:101950006104600005047400040464000d0032009a
:1019600061004000e080480060014900e0814900da
:1019700003b8a500070032000603e8006538e1005f
:1019800004003a008301d1000281d3008180d3009a
:101990000080d300f87f20000830e100030035000c
:1019a000080378006000b8006011b8004433dd001f
:1019b000f300b2008301730000000600889fbe00a0
:1019c0008a9fbe008c9fbe000404be000605be00b8
:1019d000809fbe00829fbe0063000700040678005f
:1019e0000800be000a01be005f0007008406780000
:1019f0004f03be004f02be008d4f76007fb09700b0
:101a000013003300f0ff2f008b8f6b0006003b00ac
:101a10000d0666000c00a7000a00370007f0a600bc
:101a2000100020000a003700880f5200898f5a00ea
:101a30008a0f5b008b8f5b000300390010002000d1
:101a400001003e000000200007f0a7000000ea00af
:101a50004f06be004f05be004f04be00000006004a
:101a6000800078005002be005003be004439de0002
:101a7000f700b200f37f200003016100090032008b
:101a80000218e10016003a0085017200830173001c
:101a9000838173000008200015003a0040002000f8
:101aa0001300370085017200830173008381730086
:101ab00005003a0004a8be0006a8be0010002000e1
:101ac0000b0037000201e9000402420085824a004f
:101ad00006034b0087834b000748a300f9ff320041
:101ae0000740a00004a8be0006a8be0020002000f9
:101af0008000980092009800000006000003be00dd
:101b000037fc07006220e100020032000600be0040
:101b100005000500e507b100f107b20004f023005d
:101b20008480700007f0a70001f0a00024000500e9
:101b3000e48240001078a3000700320064024000f5
:101b40001178a3003400be001401be00040032006e
:101b50000330a700000006003500be001501be00de
:101b60000330a0000000060005ff27000582610089
:101b7000070032000428e1000100320024000500c3
:101b80000600070001003a004400050004080500b3
:101b900002000700f9ff3a00140005006f8261009f
:101ba000810270008502710085027200000006004b
:101bb0000c00fa00889fbe0000047800cfb09700a8
:101bc000f0ff2700d0bf9f008004eb0099bf9f006b
:101bd00088bf9f00a8bf9f00200c2000b0bf9f00bf
:101be00078815700708057005f0007000fb897009a
:101bf000094878000fb897000804500008007800e2
:101c00004f04be000080fa0000000600889fbe005e
:101c10008a1f7800804078000004e00021003d0029
:101c20008040ea00d0c6b30080cf500009003400e5
:101c30008104fb0042062000110009008204d80044
:101c400000017800010078004311dd00ca8b2000fc
:101c50001f0037000100fb00c38b20003900370054
:101c6000a2002000110009000200d8000001780045
:101c7000010078004311dd00030141004300dd0055
:101c8000030040003002be002003be00422090004e
:101c9000d2209000f221900062219000e5fb070025
:101ca0002e003700d0c6b30080cf50002300340090
:101cb0008104fb0042062000110009008204d800c4
:101cc00000017800010078004311dd00ca96200071
:101cd0000a014100a8002000110009000800d800f6
:101ce0004300dd000a00400040229000d022900016
:101cf00060239000f023900002889000928890006a
:101d0000b289900022899000cafb0700801f7800ea
:101d100001027800110009008804d8000102fd00ca
:101d20004f0078000402fb004322dd000a0242005b
:101d30005403be004402be00d8ff37000100fb0080
:101d4000c3962000eacf5000c5ff3c004300dd00f1
:101d5000030040005001be004000be004f05780067
:101d60004f04be00000006008f03b000889fbe0035
:101d70008a9fbe008c9fbe008e1f7800e0b79f0038
:101d8000f1b79f0082bf9f000000eb00a0b79f004b
:101d9000e60437008001eb0050c2b30080cf500052
:101da000090032000100fb00efb09700ec040700cf
:101db000e10f4000dd043200afb097008100e80081
:101dc000a1b79f00d90437007fb1970092407800f7
:101dd000d0c2b30080cf50000c00320007003c009e
:101de0006d40500080cf50000d0032006b4040002d
:101df00080cf500019003a000e00370000c3b30036
:101e000080cf500015003a000f0037000330a000cb
:101e10007fb297000402e800f4b79f00eaff3700a2
:101e20000300a000ffb297008502e800f5b79f000d
:101e3000e5ff37000310a0007fb697000c06e8000e
:101e4000fcb79f00e0ff37000320a0007fb09700a1
:101e50000000e800f0b79f00dbff37000318a30085
:101e6000010032000300a1000338a300010032008a
:101e70000320a1000100fb0002fd2f000200400032
:101e8000e90f500010003e008000eb00c1b79f003a
:101e9000020278004fb197006a10b900ffb29700b4
:101ea0001501fb000001410004014100c2b79f0081
:101eb0005500fb00f5b79f0004004000e90f5000fb
:101ec0000d003e00f3ff37000006eb00ccb79f008b
:101ed000a0c2b30080cf500007003a000fb89700af
:101ee000c000780080bf9f00c1b79f007fb19700fe
:101ef0000201e800f2b79f00e0c2b3007fb2970092
:101f0000944f100021003a00830678000de0a000f5
:101f10008400e80064405000914f1000040032003b
:101f2000f1b79f008002eb00b5b79f0010003700ab
:101f30000fbe97004c0078008cbf9f00b0b79f0089
:101f4000ffb097008180e800f1b79f0013003700d1
:101f50003fb297006a20b900000041000300400032
:101f6000b0b79f00ffb297008502e800f5b79f0069
:101f70007fb697001c01fb0003fd2f00030041000a
:101f8000e90f5000f2ff36000400370083067800a6
:101f90000dc0a0000000eb00b0b79f007fb197001c
:101fa000b2407800f2b79f00c17f9f00c0c6b30067
:101fb00080cf50002700320014003c0068405000e1
:101fc00080cf50009d00320009003c006c40500062
:101fd00080cf5000290032006b40400080cf50007d
:101fe000720032000104e000560432008e00370017
:101ff00060c6b30080cf50001c0032006340400038
:1020000080cf500088003a008c00370030c7b30002
:1020100080cf50001c00320007003c00644050009c
:1020200080cf5000130032000040e80080cf500005
:102030007d003a001100370050c7b30080cf500038
:102040007d0032006340400080cf500076003a00af
:102050000b003700000028000d48a30001003a00e3
:102060000001200080867600ccff37000da0a00084
:10207000720037000d60a000700037000d50a00006
:102080000d70a0006d0037008fb9970043007800f5
:1020900083bf9f00000478000000e00001003a00c8
:1020a000c8ab20008004eb00010037008104e80089
:1020b00089007800088044001004e000fbff3a002b
:1020c0003fb297000400e00003003200890f520085
:1020d00001003100840478000007eb00cfb29700c4
:1020e000898f520001003600098752004368de00e4
:1020f000e106600019003a000d067800090037007b
:10210000efb097000002200015040700e10f400027
:10211000030032002fb097000000e800a0b79f0036
:102120000c06e8008e0f5600f5ff3a000087eb0022
:102130000a003700880078003100fb0001047800b5
:10214000efb0970006040700e10f400003003200e3
:10215000afb097008100e800a1b79f000900e90037
:1021600080047800e10f4000f2ff3a000006eb0027
:102170000d00e0000a003a00ec033700efb09700d2
:1021800000022000f6030700e10f400003003200c8
:102190002fb197000201e800a2b79f000c06e800eb
:1021a0008e0f5600f5ff3a00e00337008fb9970015
:1021b0004300780083bf9f00cf80de0001017800dc
:1021c000820178000205be000004be000203be00ca
:1021d0000002be004822de00482edd000402760028
:1021e000c47f9f000d48a3000a0032000404e000f1
:1021f00008003200e14f420006003200d1fb2f0000
:102200000180470004487800184098002900200009
:1022100002003700d07f9f0019002000d2fb2f0062
:1022200002844700a6ff3700c3fb2f00038447004a
:1022300019002000a2ff37000d0cb3000070200031
:1022400000826600270232000dc8a300020032009f
:1022500064002000b4b79f000d48a30005003200c1
:102260000fba97004401be004400be0084bf9f0027
:10227000040037008fba97004500be0085bf9f005d
:10228000e1fa0700e0af9f00f1af9f0082b79f0027
:1022900093b79f006022b8006033b8006fa8970022
:1022a000ffa897000fb197009fb19700f5fa0700bc
:1022b0000000e0000a003d006fa89700ffa897000b
:1022c0000fb197009fb1970003f0a200e0af9f000d
:1022d000f1af9f0082b79f0093b79f003d00b3000e
:1022e0000000eb0080a79f006022b8006033b800b8
:1022f0006fa89700ffa897000fb197009fb19700b4
:10230000e5fa07000000e000340032006fa89700f3
:10231000ffa897000fb197009fb19700e3fa07005d
:1023200003fc2f00038147000bfb07000fa0970061
:102330000000e9006300b900a200200011000900bc
:102340000200d8008000fd0081a79f000100e0008e
:1023500002003d000100e90080a79f000fa4970044
:102360000840ea0029fe07006faa9700ffaa97001d
:102370000fb397009fb397002efa0700a0af9f00fe
:10238000b1af9f00c2af9f00d3af9f006022b800e3
:102390000600200007ff2300bafa07000000e00053
:1023a00002003d000800e9000b0037006022b80081
:1023b00006002000470224002fa89700bfa897001e
:1023c0004fa99700dfa99700e6fa07000000e00098
:1023d000020035000800e80080a79f003fb2970088
:1023e000f80f520057003c00d0c6b300804f520097
:1023f000290036000485fb00420620001100090078
:102400000285d80000017800010478004311dd0046
:10241000cb8b20000b0141006022b8000600200099
:1024200007fe23000288900092889000b2899000f5
:1024300022899000fff90700a9002000809fbe00bc
:10244000110009000984d800000478004f00be0084
:102450004344dd000b04440048229000d822900041
:1024600068239000f8239000f2f90700801f78009d
:1024700001027800110009000985d8000102fd0061
:102480004f0078004322dd000b0242005403be00df
:102490004402be001f0037000480fb00c98b2000ef
:1024a000ea4f520014003600a2002000110009007b
:1024b0000280d80000017800010478004311dd009b
:1024c000090141006022b8000600200007fe230039
:1024d00042209000d2209000f221900062219000d2
:1024e000d4f907004344dd00090444003802be006b
:1024f0002803be00070037004300dd00090040004c
:102500006022b8000600200007fe23005001be0034
:102510004000be00c7f907000002be000203be0073
:102520006fa89700ffa897000fb197009fb1970081
:1025300091fa0700e0af9f00f1af9f0082b79f00c4
:1025400093b79f000fa49700e90f540015003c00bb
:102550006022b8006033b8006fa89700ffa897000a
:102560000fb197009fb197004bfa07000000e00001
:10257000320032006fa89700ffa897000fb19700b4
:102580009fb19700f9fa0700e00f5000e08f580064
:10259000e00f5900e08f590028003a00e10f540085
:1025a000260034000400200005002e00b6e02200c2
:1025b000170124002fa89700bfa897004fa99700e4
:1025c000dfa997002ffa07000000e00002003d009d
:1025d00073005400010037007200540080a79f0070
:1025e0000fc0970089fd0700a0af9f00b1af9f000b
:1025f000c2af9f00d3af9f000002be000203be0027
:102600006fa89700ffa897000fb197009fb19700a0
:1026100007fb0700d5fa07000205be000004be0054
:102620006000b8006011b800a0a79f00b1a79f008c
:10263000c2a79f00d3a79f002e0037006fa8970066
:10264000ffa897000fb197009fb19700c7fa070046
:102650000205be000004be00e00f5000e08f5800ed
:10266000e00f5900e08f5900020035004afb0700d7
:102670001300370010002000010020006011b80096
:1026800008006000898060000a0161008b816100a0
:102690008b03d1000a83d3008982d3000882d30040
:1026a0000000720081807200020173008381730058
:1026b00039fb07000002be000203be002efa07002d
:1026c0000002be000203be006fa89700ffa897009b
:1026d0000fb197009fb1970066fb0700a0a79f006e
:1026e000b1a79f00c2a79f00d3a79f000000eb00e7
:1026f00080a79f0014c0b300c5a120000b003700c5
:102700000400fb004300dd00050040005001be0056
:102710004000be000040e10001c8e10002d0e1003d
:1027200003d8e100030039000442e800f44f5200ee
:10273000f3ff3a00c47f9f000400fb00bfb0970086
:10274000008040008fa09700010040004fb197002b
:1027500000075100bfb197000300e0000100320004
:102760000e07e90063806600010032000e07e900f1
:102770000d28a30026003200e18066000d18a3009a
:102780000c003200d00220000100e00001003a00fd
:102790000080e900efb0970071020700e10f4000f0
:1027a000180032002fb297000402e800a4b79f007f
:1027b000140037000100e00012003200efb0970073
:1027c0000002200066020700e10f40000d00320009
:1027d000afb297008502e800a5b79f000900370057
:1027e000efb09700000320005d020700e10f4000fa
:1027f000030032002fb697000c06e800acb79f002c
:102800000e07e9000e00e000f5ff3c003d00370038
:102810000d38a3000a0032000b003700efb097001c
:10282000000220004e020700e10f400003003200ca
:102830002fb097000000e800a0b79f000e07e90046
:102840000e00e000f5ff3c00e18066000d18a300db
:102850000c003200d00220000100e00001003a002c
:102860000080e900efb097003d020700e10f400053
:1028700024003200afb097008100e800a1b79f00ac
:10288000200037000100e0001e003200efb097008a
:102890000002200032020700e10f40001900320060
:1028a0002fb197000201e800a2b79f001500370082
:1028b0000000fb004300dd00c1a12000010040003a
:1028c0003002be002003be000800be000a01be00a8
:1028d00064fb0700a4002000050020006033b8005e
:1028e00067fb07000003b000efb097001c02070071
:1028f000e10f400003003200afb197008301e80010
:10290000a3b79f004f7a97000440e900c07f9f0063
:10291000e14f4000e6ff3a000b003700efb09700b0
:10292000000320000e020700e10f40000300320008
:10293000afb297008502e800a5b79f000fa09700ef
:102940000000e90080a79f000fa097000000e000b2
:10295000f2ff3c003fb6970020c1b300f20f5600d3
:1029600001003c006fe09700c07f9f00cf78970088
:102970000100fb003fb1970000005100e0a79f005d
:102980000104e00008003200efb09700e0022000f0
:10299000f3010700e10f400003003200afb19700e0
:1029a0008301e800a3b79f004f78970097fc0700ca
:1029b0000002be000203be002fa09700bfa0970038
:1029c0004fa19700dfa197009af80700e7f90700e9
:1029d0001e0037000000fb004300dd00cca12000fa
:1029e0000c0040003002be002003be000800be0004
:1029f0000a01be001bfb0700a40020000500200008
:102a00006033b8001efb07000003b000efb0970072
:102a1000d3010700e10f4000030032002fb29700fe
:102a20000402e800a4b79f00cf7a97000500fb00de
:102a30004300dd000c0040003002be002003be0059
:102a40000800be000a01be000dfb07000205be0023
:102a50000004be004f7e97000c40e900c07f9f003d
:102a6000e14f4000dbff3a000006eb0009003700b1
:102a7000efb0970000032000b9010700e10f40000c
:102a8000030032002fb097000000e800a0b79f00bd
:102a90000c06e800efa09700810f5600f4ff3a0003
:102aa0000d38a300a10132000e00e0009f013400a8
:102ab0000006eb00efb0970000022000a80107001d
:102ac000e10f4000030032002fb197000201e8003f
:102ad000a2b79f000c06e8008e0f5600930132004b
:102ae000f4ff37000d007800000cb20028003a0017
:102af0000d00e00005003d008fb997004305be00c2
:102b00004304be0083bf9f00140037000d48a3009c
:102b10000b0032000fba97004400be0084bf9f0034
:102b20004f89de00cf91de000002be000203780074
:102b3000820378000605be000404be0007003700cb
:102b40008fba97004500780085bf9f000004780089
:102b5000cfc4de00090578008a057800e00f540034
:102b6000e08f5c00e00f5d00e08f5d0020003d0025
:102b70003d00b3006000b8006011b80008045000c8
:102b8000898458000a0559008b85590018003700c0
:102b90000d00e00005003d000fbe97004c05be0093
:102ba0004c04be008cbf9f00110037000d48a300ed
:102bb000080032008fba97004500be0085bf9f0015
:102bc00004017800840178000205be000004be0004
:102bd000070037000fbe97004c0078008cbf9f00a5
:102be00000047800090020000a0020000b002000eb
:102bf0003fb097000000e00007003a00e00f5400eb
:102c0000e08f5c00e00f5d00e08f5d0002003a00a5
:102c100011002000b1b79f000d0778000e0cb20024
:102c200000042000800f57002f00320003003c00fa
:102c30000e00e000070032003f00370000082000cf
:102c4000800f570014003200000c2000800f570046
:102c500039003a0014c0b300c5a120000b003700b2
:102c60000400fb004300dd00050040005001be00f1
:102c70004000be000040e10001c8e10002d0e100d8
:102c800003d8e1002b0039000442e800f44f520061
:102c9000f3ff3a0027003700000120000100200068
:102ca0006011b80014c0b3000040e10001c8e100a9
:102cb00002d0e10003d8e1001e00390045002000e9
:102cc0000000d0008180d2000281d2008381d20036
:102cd0008502e900faff3a000442e800f04f520092
:102ce000f1ff3a00130037008000200001002000af
:102cf0006011b80014c0b3000040e10001c8e10059
:102d000002d0e10003d8e1000a0039003c002000b5
:102d10000000d0008180d2000281d2008381d200e5
:102d20000c06e900faff3a000442e800f54f5200b1
:102d3000f1ff3a00c47f9f00cf7897000100fb00ad
:102d40003fb19700820f500002003d00c27f9f00fc
:102d500004003700bfb19700808f510001003d0093
:102d6000b0b79f004fb297000400e00004003200ab
:102d700063806600020032000402e900c4b79f00cd
:102d80000de8a3000b003200cfb297003fb69700ca
:102d90008c8f520003003c000000eb00c0b79f0086
:102da00004003700cfb097003fb1970082805000f9
:102db000c1b79f00cf7997000300fb000002eb0032
:102dc00094a79f00cfb29700808f5200020034007a
:102dd0000080520090a79f000d28a300370032000a
:102de000e18066000d18a3000c003200d002200024
:102df0000100e00001003a000080e900efb0970018
:102e0000d7000700e10f40000e0032002fb69700f8
:102e10000c06e800acb79f000a0037000100e00094
:102e200008003200efb0970000022000cc0007003d
:102e3000e10f4000030032002fb097000000e800cf
:102e4000a0b79f009fa097000100e0000f00320094
:102e50000006eb00efb0970000032000c000070061
:102e6000e10f4000030032002fb197000201e8009b
:102e7000a2b79f000c06e8009fa19700830f5600a1
:102e8000f4ff3a000002eb0094a79f00bfb2970046
:102e9000c328dd0040a120008080400091af9f004a
:102ea0004228dd006400500080af9f006328b90015
:102eb000f0a79f0063065000820037001fa697000e
:102ec0000c00e00011003200688066000f003a003c
:102ed00000067800efb0970000022000a000070075
:102ee000e10f4000030032002fb097000000e8001f
:102ef000a0b79f000c06e8009fa09700810f560026
:102f0000f4ff3a000001eb0092a79f00e180660009
:102f10000d18a3000c003200d00220000100e000d8
:102f200001003a000080e900efb097008c00070034
:102f3000e10f4000d5ff3200afb197008301e800f8
:102f4000a3b79f00d1ff37000100e000cfff3200a0
:102f5000efb097000002200081000700e10f400061
:102f6000caff32002fb297000402e800a4b79f0006
:102f7000c6ff370000042000800f570030003200e9
:102f800003003c000e00e000070032003d00370067
:102f900000082000800f570011003200000c2000b4
:102fa000800f570037003a001fa897003002be007c
:102fb0002003be000800be000a01be00a9f90700f8
:102fc000a4002000050020006033b800acf9070021
:102fd00004c3b30004424000c47f9f0029003700af
:102fe00035ac2000d5b79f000d58a30002003a0071
:102ff00040ad2000d0b79f00140020000500200045
:103000006033b8008fa897008100e9000500330005
:103010000402d0008582d2000683d2008783d200ca
:10302000f9ff37000800be000a01be008df9070055
:103030006f0060005fb197006240780010003700b9
:1030400014002000050020006033b8008c017800d7
:103050008301e900050033000402d0008582d2001c
:103060000683d2008783d200f9ff37000800be0034
:103070000a01be007bf90700674060000043b00012
:10308000c07f9f004f7a97000400fb00efb09700cd
:1030900033000700e10f400003003200afb2970099
:1030a0008502e800a5b79f001fa8970068005000a0
:1030b00090af9f008fa89700e480500081af9f00e1
:1030c00063065600d0ff2f003fb197000090b90073
:1030d000ffa197000080410063005000800f560060
:1030e000a4ff3a000d38a300100032001fa2970081
:1030f0000400e0000d0034000006eb00efb0970084
:103100000002200016000700e10f4000030032001b
:10311000afb297008502e800a5b79f000c06e80053
:103120001fa09700800f5600f4ff3a007fb1970070
:10313000b2407800f2b79f00c17f9f000104e00019
:1031400014fb3a002fb097004f0778004f06be00df
:103150004f05be004f04be008f03b1000000060003
:10316000889fbe000001780001047800b100900043
:103170000118a3003d0032000198a30003003a00ab
:10318000180090000000e00038003a000190a00014
:103190003104980082047800f90fb2001800900002
:1031a0000000e00002003a0028009000000c7800c7
:1031b000ea8f540006003a00380090000078a3001f
:1031c00003003a0088007800d0002000e4ff0700e8
:1031d0009800900058009000808f50000b00320043
:1031e0000100e800100498001800780009587800e1
:1031f000000c780011c0b30000b120000148780035
:10320000ea8f540006003200190037008800780069
:103210000940780019000700800478001400370086
:10322000380090000088a3001100320018019000bf
:10323000a800900048009000bbf4070098009000a0
:10324000810f500004003200380090000003b300ea
:10325000300498008084eb000000eb00100498001c
:1032600028009000000c7800010037008084eb00fb
:10327000090078004f04be00000006000200fa00ba
:10328000889fbe00a0ff9f0001047800b10090005d
:10329000810478000904b200020032000000fb0043
:1032a000360037000118a30005003a000103b300ff
:1032b00031049800190498000080eb002f003700bb
:1032c000580090000000e00006003a00480090001e
:1032d00012002000e680570093f4070019049800bc
:1032e00024003700280090000000e00008003a00a9
:1032f000c0b0200020049800000c780020002000be
:1033000050049800100498000130a0003104980087
:1033100018019000a80090004800900082f4070077
:1033200028009000000c78000080eb00100498004a
:1033300018007800aff8970001587800000c78006a
:103340002ff89700ea4f50000a003a00380090002a
:103350000088a3000700320018019000a800900028
:103360004800900070f4070019049800a80090002d
:10337000010c7800aff897000100fb004f04be007d
:083380000080fa0000000600c5
:020000040000fa
:0200000401f009
:04000800ffff0000f6
:020000040000fa
:0200000401f009
:04000c00f9ff0000f8
:020000040000fa
:0200000401f009
:04001000bbff000032
:020000040000fa
:0200000401f009
:040014007fff00006a
:020000040000fa
:0200000401f009
:04001800f8ff0000ed
:020000040000fa
:1000080090020000900200009002000090020000a0
:100018009002000090020000900200009002000090
:100028009002000090020000900200009002000080
:100038009002000090020000900200009002000070
:100048009002000090020000900200009002000060
:100058009002000090020000900200009002000050
:100068009002000090020000900200009002000040
:100078009002000090020000900200009002000030
:100088009002000090020000900200009002000020
:1000980090020000900200001a1f00009002000069
:1000a8009002000090020000900200009002000000
:1000b80090020000900200009002000090020000f0
:1000c80090020000900200009002000090020000e0
:1000d80090020000900200009002000090020000d0
:1000e80090020000900200009002000090020000c0
:1000f80090020000900200009002000090020000b0
:10010800900200009002000090020000900200009f
:10011800900200009002000090020000900200008f
:10012800900200009002000090020000900200007f
:10013800900200009002000090020000900200006f
:10014800900200009002000090020000900200005f
:10015800900200009002000090020000900200004f
:10016800900200009002000090020000900200003f
:10017800900200009002000090020000900200002f
:10018800900200009002000090020000900200001f
:10019800900200009002000090020000900200000f
:1001a80090020000900200009002000090020000ff
:1001b80090020000900200009002000090020000ef
:1001c80090020000900200009002000090020000df
:1001d80090020000900200009002000090020000cf
:1001e80090020000900200009002000090020000bf
:0801f8009002000090020000db
:020000040000fa
:10020800900200009002000090020000900200009e
:10021800900200009002000090020000900200008e
:10022800900200009002000090020000900200007e
:10023800900200009002000090020000900200006e
:10024800900200009002000090020000900200005e
:10025800900200009002000090020000900200004e
:10026800900200009002000090020000900200003e
:10027800900200009002000090020000900200002e
:10028800900200009002000090020000900200001e
:1002980090020000900200001a1f00009002000067
:1002a80090020000900200009002000090020000fe
:1002b80090020000900200009002000090020000ee
:1002c80090020000900200009002000090020000de
:1002d80090020000900200009002000090020000ce
:1002e80090020000900200009002000090020000be
:1002f80090020000900200009002000090020000ae
:10030800900200009002000090020000900200009d
:10031800900200009002000090020000900200008d
:10032800900200009002000090020000900200007d
:10033800900200009002000090020000900200006d
:10034800900200009002000090020000900200005d
:10035800900200009002000090020000900200004d
:10036800900200009002000090020000900200003d
:10037800900200009002000090020000900200002d
:10038800900200009002000090020000900200001d
:10039800900200009002000090020000900200000d
:1003a80090020000900200009002000090020000fd
:1003b80090020000900200009002000090020000ed
:1003c80090020000900200009002000090020000dd
:1003d80090020000900200009002000090020000cd
:1003e80090020000900200009002000090020000bd
:0803f8009002000090020000d9
:020000040000fa
:10338800252e0000326600000025000075000000b0
:1033980041000000507200006573000073200000b7
:1033a8002761000027200000746f000020630000e0
:1033b8006f6e0000746900006e7500006500000003
:1033c800524300004f4e0000202d00003e20000018
:1033d8000050000072650000737300002027000091
:1033e80063270000207400006f200000636f000056
:1033f8006e740000696e0000756500000000000032
:10340800534500004e750000706400003a570000f4
:10341800726f00006e670000206d0000617200008e
:103428006b6500007220000040200000313700006a
:1034380000530000454e000075700000643a00001b
:10344800577200006f6e0000672000006d61000079
:10345800726b000065720000204000002000000030
:10346800107a0000763f0000f0d3000065440000a9
:103478005d4900007e3f000047b000005e44000048
:10348800624c00007e3f0000b17c00005e440000fa
:103498007cae00007e3f0000487900005d440000db
:020000040000fa
:1034a8000400fa006000b800008fbe0041168000da
:1034b800f0ff2b0000806000401688004116800055
:1034c800f0ff2e0000806000401688004116800042
:1034d800f0bf2f0000806000401688004116800071
:1034e800f0ef2f0000806000401688002174200053
:1034f8006204200073052000824878008348780021
:1035080042c7a900e16c20009140780000ceb300ca
:1035180000c060002041b300cee6b700c16c2000b7
:103528009140780000ceb30000c060003041b30085
:10353800cce6b700a16c20009140780000ceb30023
:1035480000c060004041b300cae6b700816c2000ab
:103558009140780000ceb30000c060005041b30035
:10356800c8e6b7002174200062042000730520001b
:10357800824878008348780042c7a800c0c1bf00cd
:103588006f406000c0e1b700c0c5bf006f40600079
:10359800c0e5b700c0c1bf00c040b300c0e1b7007c
:1035a800c0c5bf00c040b300c0e5b700011c200083
:1035b80091407800c0cfb30000c06000c0e1b70000
:1035c800015c200091407800c0cfb30000c06000cb
:1035d800c0e5b7000000eb00100e88000000eb000b
:1035e800102e8800b0cf2200200e8800b0cf220015
:1035f800202e8800c941a800c921a800c901a80037
:10360800c905a800c8c1a800c8a1a800c881a80009
:10361800c885a800c841a900c821a900c801a900f7
:10362800c805a900f0472000b00e8800f047200028
:10363800c00e8800f0472000d00e8800f047200018
:10364800b02e8800c1e1a800c1e5a8000080fa00fa
:10365800000006000800fa001007980021079800eb
:103668000000eb00000f78000040eb007047980066
:1036780002002000134124001e009000ae009000bc
:10368800def307000000e00001003500020037000b
:1036980010c0b300704798007e4090000004a2005c
:1036a8000004e00020003a000040eb00604798006a
:1036b80002002800b33e24001e009000ae009000d7
:1036c800d0f307000000e00001003c0002003700d2
:1036d80010c0b300604798006e4090000004a2003c
:1036e8000004e00010003a00a0d18400b1d18400a9
:1036f8001e019000ae019000c4f30700c2d18400ff
:10370800d3d18400f6f307000200200003f0230061
:10371800f3f307004ff40700000f78001e0078004d
:10372800c00e88002700370002002800b33e24009e
:103738001e009000ae009000b0f307000000e0000b
:103748000100340010003700a0d18400b1d18400fa
:1037580002002800b33e2400acf30700c2d1840065
:10376800d3d18400def307000200200003f0230019
:10377800dbf3070037f40700000f78001e0078001d
:10378800c00e88000f003700a0d18400b1d184009a
:1037980002002000134124009cf30700c2d18400da
:1037a800d3d18400cef307000200200003f02300e9
:1037b800cbf3070027f40700000f78001e007800fd
:1037c800c00e88000080fa00000006000800fa0019
:1037d80010079800210798000000eb00000f780000
:1037e8000040eb00704798000200200013412400bd
:1037f8001e009000ae00900080f307000000e0007b
:10380800010035000200370010c0b300704798006f
:103818007e4090000004a2000004e00020003a006e
:103828000040eb006047980002002800b33e2400e7
:103838001e009000ae00900072f307000000e00048
:1038480001003c000200370010c0b3006047980038
:103858006e4090000004a2000004e00010003a004e
:10386800e0d18400f1d184001e019000ae019000e7
:1038780066f3070002d2840013d2840098f307008d
:103888000200200003f0230095f30700f1f307007e
:10389800000f78001e007800d00e8800270037003f
:1038a80002002800b33e24001e009000ae009000e5
:1038b80052f307000000e000010034001000370058
:1038c800e0d18400f1d1840002002800b33e240036
:1038d8004ef3070002d2840013d2840080f307005d
:1038e8000200200003f023007df30700d9f307004e
:1038f800000f78001e007800d00e88000f003700f7
:10390800e0d18400f1d1840002002000134124009a
:103918003ef3070002d2840013d2840070f307003c
:103928000200200003f023006df30700c9f307002d
:10393800000f78001e007800d00e88000080fa0082
:10394800000006000800fa001007980021079800f8
:103958000000eb00000f78000040eb007047980073
:1039680002002000134124001e009000ae009000c9
:1039780022f307000000e0000100350002003700d4
:1039880010c0b300704798007e4090000004a20069
:103998000004e00020003a000040eb006047980077
:1039a80002002800b33e24001e009000ae009000e4
:1039b80014f307000000e00001003c00020037009b
:1039c80010c0b300604798006e4090000004a20049
:1039d8000004e00010003a0060d2840071d2840034
:1039e8001e019000ae01900008f3070082d2840007
:1039f80093d284003af307000200200003f023006a
:103a080037f3070093f30700000f78001e007800d3
:103a1800b00e88002100370002002800b33e2400c1
:103a28001e009000ae009000f4f207000000e000d5
:103a3800010034000a00370080d2840091d284004b
:103a48000200200003f0230025f3070081f307009c
:103a5800000f78001e007800b00e88000f003700b5
:103a680060d2840071d28400020020001341240037
:103a7800e6f2070082d2840093d2840018f307008c
:103a88000200200003f0230015f3070071f307007c
:103a9800000f78001e007800b00e88000080fa0041
:103aa800000006000800fa00100798002107980097
:103ab8000000eb00000f78000040eb007047980012
:103ac80002002000134124001e009000ae00900068
:103ad800caf207000000e0000100350002003700cc
:103ae80010c0b300704798007e4090000004a20008
:103af8000004e00020003a000040eb006047980016
:103b080002002800b33e24001e009000ae00900082
:103b1800bcf207000000e00001003c000200370092
:103b280010c0b300604798006e4090000004a200e7
:103b38000004e00010003a0020d2840031d2840052
:103b48001e019000ae019000b0f2070042d284003e
:103b580053d28400e2f207000200200003f02300a1
:103b6800dff207003bf30700000f78001e00780023
:103b7800b02e88002100370002002800b33e240040
:103b88001e009000ae0090009cf207000000e000cc
:103b9800010034000a00370040d2840051d284006a
:103ba8000200200003f02300cdf2070029f30700ec
:103bb800000f78001e007800b02e88000f00370034
:103bc80020d2840031d28400020020001341240056
:103bd8008ef2070042d2840053d28400c0f207005c
:103be8000200200003f02300bdf2070019f30700cc
:103bf800000f78001e007800b02e88000080fa00c0
:103c0800000006000400fa00889fbe000c020700ae
:103c1800504380006143800001f0a2008240800090
:103c28009340800079f207000004be0070438000d2
:103c380081438000324380004343800073f20700d1
:103c48000001be000800be00a4f20700008fbe00fd
:103c580002002c00234024001e00be00a0f2070032
:103c6800b0438800c14388001e01be0000002c003c
:103c78002140240099f20700d0438800e1438800de
:103c88004f04be000080fa00000006000000fa00a1
:103c9800b0438000c14380006efe0700d04380001f
:103ca800e1438000c9fe0700f04380000144800022
:103cb80024ff0700104480002144800079ff07009a
:103cc8000080fa00000006000200fa000e03070058
:103cd800004f7800b0c2b3009e4f100008003a00b1
:103ce800504380006143800072bc240073ef2300be
:103cf8007bf2070050438800614388000a003700c0
:103d0800d0c2b3009e4f100007003a005043800015
:103d18006143800072bc240073ef23006ff2070038
:103d280050438800614388006000b80070438800f1
:103d3800814388006000b80090438800a143880050
:103d4800b0ff0700d1ff07000080fa00000006005e
:103d58000000fa0030c2b30025030700f0c6b30024
:103d68002303070000c3b300210307000080fa0003
:103d7800000006000c00fa0030079800420798007f
:103d8800530798006000b8001007980021079800b2
:103d98000000eb00000f78003e0090001040780013
:103da8000000fb00c800dd003e0090000000e800b5
:103db800104078000000fb00008f40001e007800d3
:103dc800cf80de00bef207004e019000de019000b9
:103dd800e6f2070010079800210798001e009000df
:103de800ae0090000080fa00000006000000fa0013
:103df8002fc8bf000004e0000a0032000040eb00ba
:103e08002fe8b7000040eb002ee8b7004c0307008e
:103e180030c2b300f602070060c6b300f402070020
:103e280097c0a8000080fa00000006003600f800dd
:103e3800809fbe00829fbe00849fbe00869fbe00fa
:103e48000200fa000040eb00004f780032c2bf00c9
:103e5800644060000004e00005003200b0118000fa
:103e6800004f78000000eb00804188002d003700eb
:103e780032c2bf00624060000004e000040032006b
:103e88002f0307000000eb00804188002500370061
:103e980082418000b011800080407800e0892000d5
:103ea800000041000148780032c8bf000004e0006b
:103eb80011003200804180000000e8008041880045
:103ec80080418000f20f500016003a000040eb00dd
:103ed80032e8b70010c0b3002de8b7008141800078
:103ee800e0892000808040000040eb008048780096
:103ef80097c0a9000b00370081418000e0892000ad
:103f0800008040009040780030c2b30080cf50005d
:103f180004003a000000eb008041880010c0b300a4
:103f280032e8b70087c0a9000080fa004f03be003e
:103f38004f02be004f01be004f00be003600f90020
:103f4800004006001400fa006000b800200798003e
:103f580031079800120037002e009000be00900034
:103f680061004000e0804800200798003107980071
:103f78002e019000be01900000d4200031002000e6
:103f8800800f5100818f59000500360030c0b30002
:103f98002ee8b70030c5b30001020700240137003e
:103fa8002dc8bf000004e000ebff32000040eb002a
:103fb8002de8b70010c0b300204798000000eb00c0
:103fc800000f7800f18a200091407800f0c3b30018
:103fd80080cf50000700320020c0b3002ee8b700a1
:103fe80040a02900f8010700d0c0b300ec01070089
:103ff8000f01370020002000000f78002000370054
:104008009e007800e0892000008040009040780001
:10401800c0c2b30080cf50001700320020c0b300e8
:104028002ee8b700d0a12900e70107001e0078009c
:10403800a2002000110009000200d8000043b000cf
:10404800d70107001e007800804178001e00780024
:10405800a2002000110009000200d8006a00b9007f
:1040680000c051000043b000cd010700d0c0b3002c
:10407800cb010700ee0037001e007800630f4000f8
:10408800000120009e0f1000ddff34000000eb004f
:10409800000f78001e0178009e007800e08920005b
:1040a8000080400090407800680047000000410010
:1040b800014878001e0fe8009e007800e089200083
:1040c8000080400090407800c0c2b30080cf50000c
:1040d800f0ff3a001e0fe8001e0078002047980005
:1040e8002e4090000000fb001e0110009e0078008a
:1040f800e089200000804000904078006a00470076
:1041080000004100014878001e0fe8009e0078007a
:10411800e08920000080400090407800c0c2b300d1
:1041280080cf5000eeff3a001e0fe8001e00780016
:10413800204798002e4090000000fb001e01100050
:104148009e007800e08920000080400090407800c0
:104158006c00470000004100014878001e0fe8008d
:104168009e007800e08920000080400090407800a0
:10417800c0c2b30080cf5000eeff3a001e0fe80027
:104188001e007800204798002e4090000000fb0099
:104198001e0110009e007800e08920000080400089
:1041a800904078006e004700000041000148780008
:1041b8001e0fe8009e007800e08920000080400083
:1041c80090407800c0c2b30080cf5000eeff3a00a4
:1041d8001e0fe8001e007800204798002e4090002f
:1041e8000000fb001e0110009e007800e0892000fe
:1041f80000804000904078007000470000004100b7
:10420800014878001e0fe8009e007800e089200031
:104218000080400090407800c0c2b30080cf5000ba
:10422800eeff3a001e0fe8001e00780020479800b5
:104238002e4090000000fb001e0110009e00780038
:10424800e08920000080400090407800720047001c
:1042580000004100014878001e0fe8009e00780029
:10426800e08920000080400090407800f0c3b3004f
:1042780080cf5000eeff3a0068004700020020009f
:1042880003322400bbfe070000408800114088006c
:104298006a00470002002000033a2400b5fe070028
:1042a80020408800314088002cc8bf000004e0008e
:1042b80011003200204080003140800022418000ff
:1042c8003341800005f1070001f0a1004241800060
:1042d80053418000cbf007000000e00001003c00e3
:1042e80007003700204180003141800020408800cd
:1042f800314088000200370010c0b3002ce8b70036
:1043080020408000314080002041880031418800f1
:104318006c004700020020000332240095fe0700cd
:1043280040408800514088006e004700020020008d
:10433800835424008ffe0700c0408800d1408800c5
:1043480070004700020020008354240089fe070003
:10435800e0408800f1408800720047000200200019
:104368008354240083fe070000418800114188001f
:10437800c0408000d14080000200200003122400c9
:104388009ef007000000e0000f003200e0408000cf
:10439800f1408000020020000312240097f007007b
:1043a8000000e00008003200004180001141800058
:1043b800020020000312240090f007000000e00033
:1043c800010032000300370010c0b3002ee8b70028
:1043d80017003700004080001140800052a32f00d2
:1043e800e3c8230089f00700604088007140880016
:1043f800204080003140800052a32f00e3c82300f2
:1044080082f007008040880091408800404080008a
:104418005140800052a32f00e3c823007bf007001f
:10442800a0408800b14088000040eb002ee8b700ab
:1044380010c0b3002fe8b7000080fa0000000600a3
:104448000000fa00889fbe00c0418000d141800072
:10445800a0418800b1418800e0418000f14180001e
:10446800c0418800d1418800e0408000f1408000d0
:10447800e0418800f14188002042800031428000fc
:10448800004288001142880040428000514280006a
:104498002042880031428800a0428000b14280005a
:1044a800e2418000f341800058f007000004be009c
:1044b800c0428000d1428000c2418000d3418000c8
:1044c80052f007000001be000800be0084f007009b
:1044d8000004be00e0428000f1428000a24180005a
:1044e800b341800049f007000001be000800be008b
:1044f8007bf007000004be0060428000714280002b
:10450800224280003342800040f007000001be00d4
:104518000800be0071f007000004be008042800061
:1045280091428000024280001342800037f0070069
:104538000001be000800be0068f0070002438000ca
:104548001343800009f10700404288005142880067
:104558004042800051428000304388004143880037
:104568004f04be000080fa00000006000000fa00b8
:1045780041168000f0ff2d00008060004016880082
:1045880041168000008020000080700040168800de
:1045980041168000f0df2f00008060004016880080
:1045a8004116800000082000008070004016880036
:1045b80021742000620420007305200082487800de
:1045c8008348780042c7a900416a200091407800da
:1045d80000ceb30000c060007040b300a4e6b7008e
:1045e800916c20009140780000ceb30000c06000bc
:1045f8003040b300c9e6b700d16c20009140780084
:1046080000ceb30000c060005040b300cde6b70054
:10461800616a20009140780000ceb30000c06000bd
:10462800b040b300a6e6b700217420006204200061
:1046380073052000824878008348780042c7a800a4
:1046480021e2a90021a2a9002182a9002162a900d2
:104658001122200091407800c0cfb30000c0600054
:1046680021e2b70020e2a90020c2a90020a2a900e7
:104678002082a9002062a900012220009140780030
:1046880090cfb30000c0600020e2b7002002a9006c
:10469800300120004011880023e2a90023c2a900ac
:1046a80023a2a9002362a9002342a9002322a9006a
:1046b8002302a90022c2bf00f043b20022e2b700e1
:1046c80022a2a9002282a9002262a9002242a900ee
:1046d8002222a9002202a90021e2a8002342a80060
:1046e80031e2a90031a2a9003182a9003162a900f2
:1046f8001123200091407800c0cfb30000c06000b3
:1047080031e2b70030e2a90030c2a90030a2a90006
:104718003082a9003062a90001232000914078006e
:1047280090cfb30000c0600030e2b7003002a900ab
:10473800b0032000c011880033e2a90033c2a900e9
:1047480033a2a9003362a9003342a9003322a90089
:104758003302a90032c2bf00f043b20032e2b70010
:1047680032a2a9003282a9003262a9003242a9000d
:104778003222a9003202a90091058000000024001d
:10478800008070009005880087c0a90097c0a90024
:1047980031e2a8003342a8000080fa0000000600b9
:1047a8000200fa00004f780023c2bf006240600098
:1047b8000004e000fcff3a001e00fb002011880006
:1047c8000080fa00000006000200fa00000f7800de
:1047d800040037001e007800104078001e0fe80023
:1047e800efff07001e007800104078000004e0008a
:1047f800f8ff3a000080fa00000006001a00fa00ec
:10480800300f9800410f98000000eb00000f78006f
:104818008e80e8003e099000ce099000829fbe007d
:10482800409c2900801f780001007800def4070012
:10483800e68757000b00370023c2bf0062406000c4
:104848000004e000fcff3a009e0078000e80e800bb
:1048580000804000104078000000fb002011880014
:104868001e0fe8009e0078000e80e80000804000df
:10487800104078000004e000efff3a000080fa00e2
:10488800000006001800fa00605798000000eb00ce
:10489800000f78006e5090000080fb008e80e800ca
:1048a800801f7800909c2900801f78000100780004
:1048b800bdf40700e48757000b00370023c2bf0090
:1048c800624060000004e000fcff3a009e007800af
:1048d8000e80e80000804000104078000000fb00d7
:1048e800201188001e0fe8009e0078000e80e80066
:1048f80000804000104078000004e000efff3a001c
:104908000080fa00000006000800fa006000b80005
:1049180010079800210798000040eb00004f78002e
:10492800100037001e009000ae00900061004000ab
:10493800e080480010079800210798001e019000a9
:10494800ae01900000242400f1002000800f5100e7
:10495800818f5900030034000000eb0030079800f5
:104968002000370022c2bf00614060000004e00060
:10497800ecff320022c2bf00644060000004e00087
:104988000500320030118000004f78000000eb0075
:10499800300798001300370022c2bf006240600051
:1049a8000004e0000c00320030118000004f780055
:1049b80030118000004f780030118000004f7800df
:1049c80030118000004f78002222a9000000eb007f
:1049d8003007980003003700301180000000fb000a
:1049e800300798003e0090000080fa0000000600a2
:1049f8000200fa00004f780033c2bf006240600036
:104a08000004e000fcff3a001e00fb00a011880033
:104a18000080fa00000006000200fa00000f78008b
:104a2800040037001e007800104078001e0fe800d0
:104a3800efff07001e007800104078000004e00037
:104a4800f8ff3a000080fa00000006000800fa00ab
:104a58000040eb00bae8b7006000b8001007980003
:104a6800210798000040eb00004f78001200370043
:104a78001e009000ae00900061004000e0804800f9
:104a880010079800210798001e019000ae019000c1
:104a980000242400f1002000800f5100818f59006c
:104aa8000500340010c0b300bae8b7000000eb00fe
:104ab800300798001f00370032c2bf006140600015
:104ac8000004e000eaff320032c2bf006440600028
:104ad8000004e00007003200b0118000004f7800a9
:104ae80010c0b300bae8b7000000eb003007980028
:104af8001000370032c2bf00624060000004e000ce
:104b0800060032000e00070010c0b300bae8b70074
:104b18000000eb003007980006003700b011800055
:104b2800004f78000040eb00bae8b7001e00fb0019
:104b3800300798003e0090000080fa000000060050
:104b48000200fa000040eb00004f78000200370036
:104b5800b0118000004f780032c2bf006140600091
:104b68000004e000faff3a0032c2bf006240600071
:104b78000004e000010032003222a9000080fa009f
:104b8800000006000000fa0002003700c09c29005f
:104b98000dff07005cff07008040780010c6b300d7
:104ba80080cf5000f9ff3a000080fa0000000600ac
:104bb8000000fa0004003700e09c290002ff07000b
:104bc800d0c0b300f6fe07004fff07008040780012
:104bd80010c6b30080cf5000f7ff3a00003a8000bb
:104be800630060000000e00015003a00409e2900c4
:104bf800f5fe0700003a80004800de0021ff0700ac
:104c080000c2b300e6fe0700003a80001dff07005f
:104c1800d0c0b300e2fe070004003700d09e290090
:104c2800e9fe0700d0c0b300ddfe070036ff07002d
:104c38008040780030c6b30080cf5000f7ff3a00bc
:104c48000000eb00003a88000080fa00000006002f
:020000040000fa
:104c58006a08000034000000020000007d50d40003
:104c680041fdd900294000000000000000000000bc
:104c7800000000000000000000000000000000002c
:104c8800000000000000000000000000000000001c
:104c9800000000000000000000000000000000000c
:104ca80000000000000800006a0000000200000088
:104cb80000000000000000000000000000000000ec
:104cc80000000000000000000000000000000000dc
:104cd80000000000000000000000000000000000cc
:104ce8000000000000e25800374100000000010009
:104cf80000000000000000000000000000000000ac
:104d0800000000000000000000000000000000009b
:104d18000000000000b3ea00f8c2a80017384200fb
:104d28007daeae0040865a002a417d00aeae4000fe
:104d38000000c80042000000000000000000000061
:104d48009e0800001400000000000000b2080000e7
:104d58000400000002000000dc689a004000000027
:104d6800ba08000002000000020000000000000075
:104d7800b608000004000000020000000000000067
:104d8800000000001c0a0000a00000000200000053
:104d9800010000000000000000000a000000000000
:104da8000000000000640000000000000000000097
:104db800e8030000000000000000100027000000c9
:104dc8000000000000a086000100000000000000b4
:104dd80040420f000000000000008000969800008c
:104de800000000000000e100f505000000000000e0
:104df80000ca9a003b00000000000000e40b5400c9
:104e0800020000000000e8007648170000000000db
:104e18000010a500d4e8000000000000a0724e00b9
:104e280018090000000040007a10f3005a00000042
:104e38000080c600a47e8d000300000000c16f0042
:104e4800f2862300000000008a5d780045630100b7
:104e580000006400a7b3b600e00d000000e8890078
:104e68000423c7008a000000bc0a00002a000000d2
:104e780002000000286e75006c6c290000303100bb
:104e88003233340035363700383941004243440064
:104e980045460000303132003334350036373800ab
:104ea800396162006364650066000000bc080000a8
:104eb8006001000002000000000000000000000087
:104ec800f03f00000000a0009999b9003f000000e1
:104ed8000040e1007a843f0000000000e04d6200dd
:104ee800503f00000000e000e2361a003f000000da
:104ef8000080b500f8e43e0000000000a0f7c600fe
:104f0800b03e00000000a000f2d77a003e0000008a
:104f180000e08e0079453e0000000000e00b2e0006
:104f2800113e00000000e000df7cdb003d000000d7
:104f38000000a1009cc73b0000000000004c480096
:104f4800b439000000000000206ca1003700000008
:104f58000000000000000000000000000000000049
:104f68000000000000000000000000000000000039
:104f78000000000000000000000000000000000029
:104f88000000000000000000000000000000000019
:104f98000000000000000000000000000000000009
:104fa80000000000000000000000f0003f000000ca
:104fb8000000000000244000000000000000000085
:104fc800594000000000000000408f004000000031
:104fd8000000000088c340000000000000006a00d4
:104fe800f84000000000000080842e00410000000e
:104ff8000000d00012634100000000000084d700c8
:10500800974100000000000065cdcd004100000080
:1050180000205f00a002420000000000801daf00d9
:105028001544000000004000593e290046000000d9
:105038000000000000f07f000000000000000000f9
:10504800f07f0000000000000000f0007f0000007a
:105058000000000000f07f000000000000000000d9
:10506800f07f0000000000000000f0007f0000005a
:105078000000000000f07f000000000000000000b9
:10508800f07f0000000000000000f0007f0000003a
:10509800e60a00002600000002000000e80a0e00f0
:1050a8000b0000000e0b09000000000002000c00bd
:1050b8000b0000000c0b06000201000000000000bd
:1050c80000000000000006000202000000000000ce
:1050d8000c0b00000600000000000000120b00008e
:1050e80002000000020000000100000000000000b3
:020000040000fa
:1050f8000000fa001132200091407800c0cfb300c0
:1051080000c0600021e3b70020c3bf007f406000fb
:1051180020e3b7002043a9002143a9003132200031
:1051280091407800c0cfb30000c0600023e3b7000f
:1051380025e3a900f0c3b30024e3b7002183a90045
:10514800213220009140780030ccb30000c06000cc
:1051580022e3b700813220009140780000ceb300ee
:1051680000c060005040b30028e3b70028e3a9005e
:105178000080eb00601988002ca3a90085a0a90075
:1051880095a0a90021e3a8000080fa00000006000d
:105198000200fa002003a9002023a8000000eb0069
:1051a800000f78000000eb00000f780001003700c6
:1051b8001e0fe800f01820009e0f1000fcff3400be
:1051c8002023a90020c3bf00614060000004e00064
:1051d800fcff320000188000b9e8b7000018800012
:1051e8004800de00b8e8b700b8c8bf000000fb0000
:1051f800c800dd00b9c8bf000000fb0000807000d7
:10520800b0458800b1458000e03f2000808f500005
:1052180006003600f03f2000b045880030c0b300db
:10522800b8e8b70000c0eb00b9e8b700b8c8bf00dd
:105238005bfd0700b9c8bf0059fd0700d0c0b30027
:1052480057fd07000080fa00000006000400fa007d
:105258006000b800008fbe00040037001000200076
:10526800010020001e0f40005e974800f0672900eb
:1052780081092000be0f1000ae8f1800f7ff340020
:105288000080fa00000006000600fa000040eb006b
:10529800404798006000b800008fbe000080eb0017
:1052a8006019880060022000303a880044c7bf00b7
:1052b800f043b20044e7b700417420009140780001
:1052c80000ceb30000c0600044e7b7000000eb0068
:1052d800403a880042c7bf000042b2000004e00024
:1052e800fcff320040a7a900a0fc070098fa0700bd
:1052f8006bf807007eff070022fe0700000037005a
:1053080081fd0700404798004e4090000004e000ef
:10531800fbff3200ce40900060c6b30080cf500043
:10532800f7ff3a009aff07006000b800008fbe0040
:04533800f3ff370048
:00000001FF
